:020000005B2C77
:10000800FF00030E8301D8000A08E1008A01700886
:10001800A1000B1C1B28061A142806150130CE0057
:10002800861A192886150130CF00FE308B050B1D66
:10003800F428D20AD60AD50AD00A5208023A031D71
:100048006328D201C92270088312D3007108D40032
:100058003230F4000030F500EB22FF30F4000330BA
:10006800F50016237008C8007108C90059237008E4
:100078008312AC007108AD003230F4000030F50096
:10008800EB22FF30F4000330F50016237008AE00B1
:100098007108AF004908003C031D54284808223C59
:1000A800031C5F282F08003C031D5C282E08223CF7
:1000B800031C5F28612886146328FD3086054E08D6
:1000C800013A031D7828D10ACD0A4D080F3A031DBD
:1000D8007028CD01043086065108963A031D782809
:1000E800D101CE01FB3086054F08013A031D8D284A
:1000F800D70ACC0A4C080F3A031D8528CC010830D2
:1001080086065708963A031D8D28D701CF01F73088
:1001180086055608073A031DB128D60173237008CF
:100128008312B0007108B1003230F4000030F500DD
:10013800EB22FF30F4000330F50016237008A2000C
:100148007108A3007108003C031DAC2870080A3C24
:100158000318B128CA0A0319CB0A5508DB3A031D4C
:10016800EB28D501EE30F0002A30F1004A08F400FF
:100178004B08F500EB227008F5007108F600F7014E
:10018800F8017508F0007608F1007708F2007808A1
:10019800F300F30CF20CF10CF00CF3137008A4004C
:1001A8007108A5007208A6007308A700BC30F40007
:1001B8000230F500F601F70107217008A800710860
:1001C800A9007208AA007308AB00CA01CB01500845
:1001D800073A031DF228D0018D23F423FB308B0549
:1001E8000C1CFE28DF0A0319E00AB60A0319B70A2D
:1001F800FE308C052108F00061088A00580E830043
:06020800FF0E7F0E09004D
:10020E0083120313FB01FA01F901F801A001730D2A
:10021E00F80D7408F8027508031C750FF9027608BC
:10022E00031C760FFA027708031C770FFB020001FE
:10023E00031C0130A002F30D0730FC00730DF80D06
:10024E00F90DFA0DFB0DA00D7408731C4029F80270
:10025E007508031C750FF9027608031C760FFA0257
:10026E007708031C770FFB020001031C0130A0026C
:10027E005129F80775080318750FF9077608031842
:10028E00760FFA0777080318770FFB07000103189C
:10029E000130A007F30DFC0B2529720DF80DF90D99
:1002AE00FA0DFB0DA00D7408731C6F29F80275086A
:1002BE00031C750FF9027608031C760FFA027708F5
:1002CE00031C770FFB020001031C0130A0028029E2
:1002DE00F80775080318750FF90776080318760FD7
:1002EE00FA0777080318770FFB0700010318013090
:1002FE00A007F20D0730FC00720DF80DF90DFA0D86
:10030E00FB0DA00D7408721C9E29F8027508031CC3
:10031E00750FF9027608031C760FFA027708031C94
:10032E00770FFB020001031C0130A002AF29F80772
:10033E0075080318750FF90776080318760FFA0774
:10034E0077080318770FFB07000103180130A00789
:10035E00F20DFC0B8329710DF80DF90DFA0DFB0D45
:10036E00A00D7408721CCD29F8027508031C750FB8
:10037E00F9027608031C760FFA027708031C770F32
:10038E00FB020001031C0130A002DE29F8077508EC
:10039E000318750FF90776080318760FFA07770812
:1003AE000318770FFB07000103180130A007F10DAA
:1003BE000730FC00710DF80DF90DFA0DFB0DA00DB7
:1003CE007408711CFC29F8027508031C750FF902DC
:1003DE007608031C760FFA027708031C770FFB02D0
:1003EE000001031C0130A0020D2AF807750803183E
:1003FE00750FF90776080318760FFA0777080318B2
:10040E00770FFB07000103180130A007F10DFC0B5D
:10041E00E129700DF80DF90DFA0DFB0DA00D740804
:10042E00711C2B2AF8027508031C750FF902760849
:10043E00031C760FFA027708031C770FFB020001EC
:10044E00031C0130A0023C2AF80775080318750F2B
:10045E00F90776080318760FFA0777080318770F4F
:10046E00FB07000103180130A007F00D0730FC0058
:10047E00700DF80DF90DFA0DFB0DA00D7408701C22
:10048E005A2AF8027508031C750FF9027608031C28
:10049E00760FFA027708031C770FFB020001031C8C
:1004AE000130A0026B2AF80775080318750FF907BB
:1004BE0076080318760FFA0777080318770FFB07ED
:1004CE00000103180130A007F00DFC0B3F2A701835
:1004DE007E2A7408F80775080318750FF907760851
:1004EE000318760FFA0777080318770FFB07080033
:1004FE0083120313F101F20163087202031D892AAC
:10050E00620871020318912A00000000F10A031913
:06051E00F20A832A080026
:10052400831203132230FC00F801F901FA01FB01E4
:10053400FC030319C82A0310FB0CFA0CF90CF80C81
:10054400F30CF20CF10CF00C031C9A2AFC030319B3
:10055400BA2A7408F80775080318750FF90776089E
:100564000318760FFA0777080318770FFB079E2AFC
:100574007408F80775080318750FF9077608031847
:0E058400760FFA0777080318770FFB070800B9
:10059200C730831203139F050A30E2000030E300E4
:1005A2007F221F151F1DD62AD32A1E08F100F00133
:0C05B20083161E08F0040030F10408005D
:1005BE004130831203139F00C03083169F00FF301B
:0805CE008500073089000800D8
:1005D60083120313FB01FA01F9018030F800F10CD4
:1005E600F00C031CFF2A7408F90775080318750F29
:1005F600FA070318FB0A0310F01F072B7408FA0703
:1006060075080318750FFB07FB0CFA0CF90CF80CB0
:10061600031CF22A7B08F3007A08F2007908F1003D
:060626007808F000080056
:10062C0083120313F801F9011030FC00710DF80D61
:10063C00F90D7408F8027508031C750FF9020318FC
:10064C002E2B7408F80775080318750FF90703109B
:0A065C00F00DF10DFC0B1C2B080043
:1006660083120313DF01E001DB01DC01DD01DE01A2
:10067600B801B901BA01BB01B601B701B201B301B4
:10068600B401B501C401C501C601C701C001C1015C
:10069600C201C301BC01BD01BE01BF018F018E01B4
:0C06A60083160C1418308312900008001A
:1006B200CF30831203131F05F000083070049F002F
:1006C2000A30E2000030E3007F221F151F1D6A2B53
:1006D200672B1E08F100F00183161E08F00400309B
:0406E200F104080017
:1006E600D730831203131F05F000103070049F00EB
:1006F6000A30E2000030E3007F221F151F1D842B05
:10070600812B1E08F100F00183161E08F00400304C
:04071600F1040800E2
:10071A0083120313DF01E0018F018E0186170A306D
:10072A00E2000030E3007F227F308605061B9E2B05
:10073A009B2B19309000061FA32BA02B183090007A
:10074A000F08F100F0010E087004F8007108F900B2
:10075A000030F9046008F7005F08F600F401F501BB
:10076A007808F0007908F100F201F3017408F00743
:10077A0075080318750FF10776080318760FF20744
:10078A0077080318770FF3077008DB007108DC009D
:10079A007208DD007308DE007008B8007108B9003D
:1007AA007208BA007308BB002230F400F501F601A2
:1007BA00F7019222E830F4000330F500F601F70160
:1007CA0007217008C0007108C1007208C2007308CE
:0E07DA00C300C30CC20CC10CC00CC31308003A
:1007E80083120313B601B7018F018E0187170A30F0
:1007F800E2000030E3007F227F308705071B052CCD
:10080800022C19309000071F0A2C072C1830900072
:100818000F08F100F0010E087004F8007108F900E3
:100828000030F9043708F7003608F600F401F5013E
:100838007808F0007908F100F201F3017408F00774
:1008480075080318750FF10776080318760FF20775
:1008580077080318770FF3077008B2007108B30020
:100868007208B4007308B5007008C4007108C500A8
:100878007208C6007308C7002230F400F501F601BB
:10088800F7019222E830F4000330F500F601F70191
:1008980007217008BC007108BD007208BE0073080B
:0E08A800BF00BF0CBE0CBD0CBC0CBF13080083
:1008B6007130831603138600831286014030831637
:1008C600870083128701DF223323073083168100D6
:1008D600F8308B0083128101CA01CB01CC01CD0116
:1008E600D501D601D701D101D20100304302031D43
:1008F600862C00304202031D862C00304102031D67
:10090600862C1430400203188B2C0C3087048D2C57
:10091600F330870500303F02031D9B2C00303E025A
:10092600031D9B2C00303D02031D9B2C14303C0202
:100936000318A02C30308704A22CCF308705782CE2
:02094600A32CE0
:02400E004A2F37
:00000001FF
