:020000007C2C56
:10000800FF00030E8301DD000A08DC008A01700886
:10001800A1000B1C1B28061A142806150130AA007B
:10002800861A192886150130BA00FE308B050B1D7B
:10003800F428CA0AD00ACF0AB50A4A08023A031DA8
:100048006328CA01052370088312B6007108B70037
:100058003230F4000030F5001B23FF30F400033089
:10006800F50060237008B8007108B900F92370081A
:100078008312D2007108D3003230F4000030F5004A
:100088001B23FF30F4000330F50060237008E00004
:100098007108E1003908003C031D54283808223C47
:1000A800031C5F286108003C031D5C286008223C93
:1000B800031C5F28612886146328FD3086052A08FA
:1000C800013A031D7828C90AC20A42080F3A031DDB
:1000D8007028C201043086064908963A031D78281C
:1000E800C901AA01FB3086053A08013A031D8D288B
:1000F800D10AC10A41080F3A031D8528C1010830F9
:1001080086065108963A031D8D28D101BA01F730A9
:1001180086055008073A031DB128D0014623700808
:100128008312E2007108E3003230F4000030F50079
:100138001B23FF30F4000330F50060237008DE0055
:100148007108DF007108003C031DAC2870080A3CE8
:100158000318B128BF0A0319C00A4F08DB3A031D68
:10016800EB28CF01EE30F0002A30F1003F08F40010
:100178004008F5001B237008F5007108F600F70128
:10018800F8017508F0007608F1007708F2007808A1
:10019800F300F30CF20CF10CF00CF3137008D4001C
:1001A8007108D5007208D6007308D700BC30F40077
:1001B8000230F500F601F70107217008D800710830
:1001C800D9007208DA007308DB00BF01C0013508E6
:1001D800043A031DF228B5017D231324FB308B0557
:1001E8000C1CFE28BD0A0319BE0AB30A0319B40A77
:1001F800FE308C052108F0005C088A005D0E830043
:06020800FF0E7F0E09004D
:10020E0083120313FB01FA01F901F801A001730D2A
:10021E00F80D7408F8027508031C750FF9027608BC
:10022E00031C760FFA027708031C770FFB020001FE
:10023E00031C0130A002F30D0730FC00730DF80D06
:10024E00F90DFA0DFB0DA00D7408731C4029F80270
:10025E007508031C750FF9027608031C760FFA0257
:10026E007708031C770FFB020001031C0130A0026C
:10027E005129F80775080318750FF9077608031842
:10028E00760FFA0777080318770FFB07000103189C
:10029E000130A007F30DFC0B2529720DF80DF90D99
:1002AE00FA0DFB0DA00D7408731C6F29F80275086A
:1002BE00031C750FF9027608031C760FFA027708F5
:1002CE00031C770FFB020001031C0130A0028029E2
:1002DE00F80775080318750FF90776080318760FD7
:1002EE00FA0777080318770FFB0700010318013090
:1002FE00A007F20D0730FC00720DF80DF90DFA0D86
:10030E00FB0DA00D7408721C9E29F8027508031CC3
:10031E00750FF9027608031C760FFA027708031C94
:10032E00770FFB020001031C0130A002AF29F80772
:10033E0075080318750FF90776080318760FFA0774
:10034E0077080318770FFB07000103180130A00789
:10035E00F20DFC0B8329710DF80DF90DFA0DFB0D45
:10036E00A00D7408721CCD29F8027508031C750FB8
:10037E00F9027608031C760FFA027708031C770F32
:10038E00FB020001031C0130A002DE29F8077508EC
:10039E000318750FF90776080318760FFA07770812
:1003AE000318770FFB07000103180130A007F10DAA
:1003BE000730FC00710DF80DF90DFA0DFB0DA00DB7
:1003CE007408711CFC29F8027508031C750FF902DC
:1003DE007608031C760FFA027708031C770FFB02D0
:1003EE000001031C0130A0020D2AF807750803183E
:1003FE00750FF90776080318760FFA0777080318B2
:10040E00770FFB07000103180130A007F10DFC0B5D
:10041E00E129700DF80DF90DFA0DFB0DA00D740804
:10042E00711C2B2AF8027508031C750FF902760849
:10043E00031C760FFA027708031C770FFB020001EC
:10044E00031C0130A0023C2AF80775080318750F2B
:10045E00F90776080318760FFA0777080318770F4F
:10046E00FB07000103180130A007F00D0730FC0058
:10047E00700DF80DF90DFA0DFB0DA00D7408701C22
:10048E005A2AF8027508031C750FF9027608031C28
:10049E00760FFA027708031C770FFB020001031C8C
:1004AE000130A0026B2AF80775080318750FF907BB
:1004BE0076080318760FFA0777080318770FFB07ED
:1004CE00000103180130A007F00DFC0B3F2A701835
:1004DE007E2A7408F80775080318750FF907760851
:1004EE000318760FFA0777080318770FFB07080033
:1004FE0083120313F101F20167087202031D892AA8
:10050E00660871020318912A00000000F10A03190F
:06051E00F20A832A080026
:10052400831203132230FC00F801F901FA01FB01E4
:10053400FC030319C82A0310FB0CFA0CF90CF80C81
:10054400F30CF20CF10CF00C031C9A2AFC030319B3
:10055400BA2A7408F80775080318750FF90776089E
:100564000318760FFA0777080318770FFB079E2AFC
:100574007408F80775080318750FF9077608031847
:0E058400760FFA0777080318770FFB070800B9
:0A059200831203133C0895000800D3
:10059C004130831203139F00C43083169F00073031
:0405AC0089000800BA
:1005B00083120313BD01BE01AB01AC01AD01AE015D
:1005C000AF01B001B101B201B301B401A201A301B5
:1005D000A401A501A601A701A801A901C801C301A1
:1005E000C401C501C601C701CB01CC01CD01CE01BB
:1005F0008F018E0183160C141830831290000800AE
:0A060000831203133B089B0008005F
:10060A00C730831203139F050A30E6000030E70063
:10061A007F221F151F1D122B0F2B1E08F100F00140
:0C062A0083161E08F0040030F1040800E4
:1006360083120313FB01FA01F9018030F800F10C73
:10064600F00C031C2F2B7408F90775080318750F97
:10065600FA070318FB0A0310F01F372B7408FA0772
:1006660075080318750FFB07FB0CFA0CF90CF80C50
:10067600031C222B7B08F3007A08F2007908F100AC
:060686007808F0000800F6
:10068C00DF30831203131F05F000183070049F0035
:10069C000A30E6000030E7007F221F151F1D572B84
:1006AC00542B1E08F100F00183161E08F0040030D4
:0406BC00F10408003D
:1006C00083120313F801F9011030FC00710DF80DCD
:1006D000F90D7408F8027508031C750FF902031868
:1006E000782B7408F80775080318750FF9070310BD
:0A06F000F00DF10DFC0B662B080065
:1006FA0083120313BD01BE018F018E0187170A30D1
:10070A00E6000030E7007F227F308705071B8E2B2B
:10071A008B2B19309000071F932B902B18309000C9
:10072A000F08F100F0010E087004F8007108F900D2
:10073A000030F9043E08F7003D08F600F401F5011F
:10074A007808F0007908F100F201F3017408F00763
:10075A0075080318750FF10776080318760FF20764
:10076A0077080318770FF3077008AB007108AC001D
:10077A007208AD007308AE007008AF007108B000CF
:10078A007208B1007308B2002230F400F501F601D4
:10079A00F7019222E830F4000330F500F601F70180
:1007AA0007217008C4007108C5007208C6007308E2
:1007BA00C700C70CC60CC50CC40CC7130130C8004F
:0207CA00080025
:1007CC0007308312031392000C3097000C309D00FD
:1007DC00FA30831692007D30831295007D309B0099
:0607EC00BC01BB01080086
:1007F200CF30831203131F05F000083070049F00EE
:100802000A30E6000030E7007F221F151F1D0A2C68
:10081200072C1E08F100F00183161E08F0040030B8
:04082200F1040800D5
:1008260083120313B301B4018F018E0187160A30B8
:10083600E6000030E7007F22DF308705071A242C08
:10084600212C19309000071E292C262C18309000D8
:100856000F08F100F0010E087004F8007108F900A5
:100866000030F9043408F7003308F600F401F50106
:100876007808F0007908F100F201F3017408F00736
:1008860075080318750FF10776080318760FF20737
:1008960077080318770FF3077008A2007108A30002
:1008A6007208A4007308A5007008A6007108A700C6
:1008B6007208A8007308A9002230F400F501F601B9
:1008C600F7019222E830F4000330F500F601F70153
:1008D60007217008CB007108CC007208CD007308A0
:1008E600CE00CE0CCD0CCC0CCB0CCE130130C300FD
:0208F6000800F8
:1008F800CF308316031385008312850131308316A8
:100908008600831286015030831687008312870180
:10091800CE22D822E623073083168100F8308B00D8
:1009280083128101BF01C001C101C201CF01D00101
:10093800D101C901CA01481CE12C00304702031D3E
:10094800AF2C00304602031DAF2C00304502031DBA
:10095800AF2C0A3044020318B52C0617FA30BC0035
:10096800E02C00304702031DC32C00304602031D53
:10097800C32C00304502031DC32C1E30440203184B
:10098800C92C0617C830BC00E02C00304702031DF4
:10099800D72C00304602031DD72C00304502031D1A
:1009A800D72C323044020318DD2C0617AF30BC00B8
:1009B800E02CBF308605BC01C801431C232D003044
:1009C8004E02031DF12C00304D02031DF12C0030A6
:1009D8004C02031DF12C0A304B020318F72CFA3095
:1009E800BB008516222D00304E02031D052D003058
:1009F8004D02031D052D00304C02031D052D32301C
:100A08004B0203180B2D7830BB008516222D0030C1
:100A18004E02031D192D00304D02031D192D003003
:100A28004C02031D192D64304B0203181F2D3C3056
:100A3800BB008516222DBB01DF308505C301C92205
:060A480000239F2C262D67
:02400E004A2F37
:00000001FF
