:02000000F32BE0
:10000800FF00030E8301D8000A08E1008A01700886
:10001800A1000B1C1B28061A142806150130CE0057
:10002800861A192886150130CF00FE308B050B1D66
:10003800F328D20AD60AD50AD00A5208023A031D72
:100048006328D201FF2270088312D3007108D400FC
:100058003230F4000030F500C822FF30F4000330DD
:10006800F50015237008C8007108C9004C237008F2
:100078008312AC007108AD003230F4000030F50096
:10008800C822FF30F4000330F50015237008AE00D5
:100098007108AF004908003C031D54284808223C59
:1000A800031C5F282F08003C031D5C282E08223CF7
:1000B800031C5F28612886146328FD3086054E08D6
:1000C800013A031D7828D10ACD0A4D080F3A031DBD
:1000D8007028CD01043086065108963A031D782809
:1000E800D101CE01FB3086054F08013A031D8D284A
:1000F800D70ACC0A4C080F3A031D8528CC010830D2
:1001080086065708963A031D8D28D701CF01F73088
:1001180086055608073A031DB128D6013223700810
:100128008312B0007108B1003230F4000030F500DD
:10013800C822FF30F4000330F50015237008A20030
:100148007108A3007108003C031DAC2870080A3C24
:100158000318B128CA0A0319CB0A5508DB3A031D4C
:10016800EB28D501EE30F0002A30F1004A08F400FF
:100178004B08F500C8227008F5007108F600F70171
:10018800F8017508F0007608F1007708F2007808A1
:10019800F300F30CF20CF10CF00CF3137008A4004C
:1001A8007108A5007208A6007308A700BC30F40007
:1001B8000230F500F601F70106217008A800710861
:1001C800A9007208AA007308AB00CA01CB01500845
:1001D8001E3A031DF128D0018C23FB308B050C1C23
:1001E800FD28DF0A0319E00AB60A0319B70AFE3028
:1001F8008C052108F00061088A00580E8300FF0E64
:040208007F0E09005C
:10020C0083120313FB01FA01F901F801A001730D2C
:10021C00F80D7408F8027508031C750FF9027608BE
:10022C00031C760FFA027708031C770FFB02000100
:10023C00031C0130A002F30D0730FC00730DF80D08
:10024C00F90DFA0DFB0DA00D7408731C3F29F80273
:10025C007508031C750FF9027608031C760FFA0259
:10026C007708031C770FFB020001031C0130A0026E
:10027C005029F80775080318750FF9077608031845
:10028C00760FFA0777080318770FFB07000103189E
:10029C000130A007F30DFC0B2429720DF80DF90D9C
:1002AC00FA0DFB0DA00D7408731C6E29F80275086D
:1002BC00031C750FF9027608031C760FFA027708F7
:1002CC00031C770FFB020001031C0130A0027F29E5
:1002DC00F80775080318750FF90776080318760FD9
:1002EC00FA0777080318770FFB0700010318013092
:1002FC00A007F20D0730FC00720DF80DF90DFA0D88
:10030C00FB0DA00D7408721C9D29F8027508031CC6
:10031C00750FF9027608031C760FFA027708031C96
:10032C00770FFB020001031C0130A002AE29F80775
:10033C0075080318750FF90776080318760FFA0776
:10034C0077080318770FFB07000103180130A0078B
:10035C00F20DFC0B8229710DF80DF90DFA0DFB0D48
:10036C00A00D7408721CCC29F8027508031C750FBB
:10037C00F9027608031C760FFA027708031C770F34
:10038C00FB020001031C0130A002DD29F8077508EF
:10039C000318750FF90776080318760FFA07770814
:1003AC000318770FFB07000103180130A007F10DAC
:1003BC000730FC00710DF80DF90DFA0DFB0DA00DB9
:1003CC007408711CFB29F8027508031C750FF902DF
:1003DC007608031C760FFA027708031C770FFB02D2
:1003EC000001031C0130A0020C2AF8077508031841
:1003FC00750FF90776080318760FFA0777080318B4
:10040C00770FFB07000103180130A007F10DFC0B5F
:10041C00E029700DF80DF90DFA0DFB0DA00D740807
:10042C00711C2A2AF8027508031C750FF90276084C
:10043C00031C760FFA027708031C770FFB020001EE
:10044C00031C0130A0023B2AF80775080318750F2E
:10045C00F90776080318760FFA0777080318770F51
:10046C00FB07000103180130A007F00D0730FC005A
:10047C00700DF80DF90DFA0DFB0DA00D7408701C24
:10048C00592AF8027508031C750FF9027608031C2B
:10049C00760FFA027708031C770FFB020001031C8E
:1004AC000130A0026A2AF80775080318750FF907BE
:1004BC0076080318760FFA0777080318770FFB07EF
:1004CC00000103180130A007F00DFC0B3E2A701838
:1004DC007D2A7408F80775080318750FF907760854
:1004EC000318760FFA0777080318770FFB07080035
:1004FC00831203132230FC00F801F901FA01FB010D
:10050C00FC030319B42A0310FB0CFA0CF90CF80CBD
:10051C00F30CF20CF10CF00C031C862AFC030319EF
:10052C00A62A7408F80775080318750FF9077608DA
:10053C000318760FFA0777080318770FFB078A2A38
:10054C007408F80775080318750FF907760803186F
:0E055C00760FFA0777080318770FFB070800E1
:10056A0083120313F101F20163087202031DBF2A09
:10057A00620871020318C72A00000000F10A031971
:06058A00F20AB92A080084
:1005900083120313FB01FA01F9018030F800F10C1A
:1005A000F00C031CDC2A7408F90775080318750F92
:1005B000FA070318FB0A0310F01FE42A7408FA076D
:1005C00075080318750FFB07FB0CFA0CF90CF80CF7
:1005D000031CCF2A7B08F3007A08F2007908F100A7
:0605E0007808F00008009D
:1005E6004130831203139F00C03083169F00FF30F3
:0805F6008500073089000800B0
:1005FE00C730831203139F050630FD00FD0B052B3C
:10060E0000001F151F1D0C2B092B1E08F100F001F9
:0C061E0083161E08F0040030F1040800F0
:10062A0083120313F801F9011030FC00710DF80D63
:10063A00F90D7408F8027508031C750FF9020318FE
:10064A002D2B7408F80775080318750FF90703109E
:0A065A00F00DF10DFC0B1B2B080046
:10066400D730831203131F05F000103070049F006D
:100674000A30E2000030E300B5221F151F1D432B92
:10068400402B1E08F100F00183161E08F004003010
:04069400F104080065
:10069800CF30831203131F05F000083070049F0049
:1006A8000A30E2000030E300B5221F151F1D5D2B44
:1006B8005A2B1E08F100F00183161E08F0040030C2
:0406C800F104080031
:1006CC0083120313DF01E001DB01DC01DD01DE013C
:1006DC00B801B901BA01BB01B601B701B201B3014E
:1006EC00B401B501C401C501C601C701C001C101F6
:1006FC00C201C301BC01BD01BE01BF018F018E014E
:0C070C0083160C141830831290000800B3
:1007180083120313DF01E0018F018E0186170A306F
:10072800E2000030E300B5227F308605061B9D2BD2
:100738009A2B19309000061FA22B9F2B183090007F
:100748000F08F100F0010E087004F8007108F900B4
:100758000030F9046008F7005F08F600F401F501BD
:100768007808F0007908F100F201F3017408F00745
:1007780075080318750FF10776080318760FF20746
:1007880077080318770FF3077008DB007108DC009F
:100798007208DD007308DE007008B8007108B9003F
:1007A8007208BA007308BB002230F400F501F601A4
:1007B800F7017E22E830F4000330F500F601F70176
:1007C80006217008C0007108C1007208C2007308D1
:0E07D800C300C30CC20CC10CC00CC31308003C
:1007E6007130831603138600831286014030831608
:1007F600870083128701F322662307308316810060
:10080600F8308B0083128101CA01CB01CC01CD01E6
:10081600D501D601D701D101D20100304302031D13
:100826001E2C00304202031D1E2C00304102031D07
:100836001E2C0A3040020318232C0C308704252C6A
:10084600F330870500303F02031D332C00303E0293
:10085600031D332C00303D02031D332C0A303C02AD
:100866000318382C303087043A2CCF308705102CEB
:020876003B2C19
:02400E004A2F37
:00000001FF
