:02000000FE2CD4
:10000800FF00030E8301EC000A08ED008A01700866
:10001800A3007108A2007208A1008B1C1A280618F8
:100028001828DF010130E800FD308B050B1C28285B
:10003800061A212806150130E900861A2628861591
:100048000130E600FE308B050B1D0429BE0ABD0AEF
:10005800C30AE70A3E08023A031D7028BE01772347
:1000680070088312D9007108DA003230F4000030C9
:10007800F5009B24FF30F4000330F50011247008CC
:10008800C9007108CA00E22470088312CB00710805
:10009800CC003230F4000030F5009B24FF30F4002F
:1000A8000330F50011247008C5007108C6004A081D
:1000B800003C031D61284908223C031C6C284608A3
:1000C800003C031D69284508223C031C6C286E2847
:1000D80086147028FD3086056908013A031D8528B5
:1000E800BF0AC40A44080F3A031D7D28C40104301E
:1000F80086063F08963A031D8528BF01E901FB30B3
:1001080086056608013A031D9A28BC0AC00A4008F9
:100118000F3A031D9228C001083086063C08963A1B
:10012800031D9A28BC01E601F73086053D08073A09
:10013800031DBE28BD01C62470088312C7007108BC
:10014800C8003230F4000030F5009B24FF30F40082
:100158000330F50011247008D3007108D400710829
:10016800003C031DB92870080A3C0318BE28C10AC0
:100178000319C20A4308DB3A031DF828C301EE300D
:10018800F0002A30F1004108F4004208F5009B24F1
:100198007008F5007108F600F701F8017508F0001D
:1001A8007608F1007708F2007808F300F30CF20CF7
:1001B800F10CF00CF3137008D5007108D600720822
:1001C800D7007308D800BC30F4000230F500F601FF
:1001D800F70144217008CD007108CE007208CF00E5
:1001E8007308D000C101C2015F080319022967081A
:1001F800043A031D0229E7012E24A423FB308B05B2
:100208000C1C0E29B90A0319BA0AE00A0319E10AF3
:10021800FE308C050D1C37296F0803192029520858
:10022800F000F10170089C0051089B00EF010930B3
:100238009D008F018E0135295108403CF30052087A
:10024800031C013E9C3CF4007408F000F1017008A6
:100258009C0073089B0008309D000130EF008F015F
:100268008E01FE308D052308F0002208F1002108D8
:10027800F2006D088A006C0E8300FF0E7F0E0900E5
:1002880083120313FB01FA01F901F801A001730DB0
:10029800F80D7408F8027508031C750FF902760842
:1002A800031C760FFA027708031C770FFB02000184
:1002B800031C0130A002F30D0730FC00730DF80D8C
:1002C800F90DFA0DFB0DA00D7408731C7D29F802B9
:1002D8007508031C750FF9027608031C760FFA02DD
:1002E8007708031C770FFB020001031C0130A002F2
:1002F8008E29F80775080318750FF907760803188B
:10030800760FFA0777080318770FFB070001031821
:100318000130A007F30DFC0B6229720DF80DF90DE1
:10032800FA0DFB0DA00D7408731CAC29F8027508B2
:10033800031C750FF9027608031C760FFA0277087A
:10034800031C770FFB020001031C0130A002BD292A
:10035800F80775080318750FF90776080318760F5C
:10036800FA0777080318770FFB0700010318013015
:10037800A007F20D0730FC00720DF80DF90DFA0D0B
:10038800FB0DA00D7408721CDB29F8027508031C0C
:10039800750FF9027608031C760FFA027708031C1A
:1003A800770FFB020001031C0130A002EC29F807BB
:1003B80075080318750FF90776080318760FFA07FA
:1003C80077080318770FFB07000103180130A0070F
:1003D800F20DFC0BC029710DF80DF90DFA0DFB0D8E
:1003E800A00D7408721C0A2AF8027508031C750F00
:1003F800F9027608031C760FFA027708031C770FB8
:10040800FB020001031C0130A0021B2AF807750833
:100418000318750FF90776080318760FFA07770897
:100428000318770FFB07000103180130A007F10D2F
:100438000730FC00710DF80DF90DFA0DFB0DA00D3C
:100448007408711C392AF8027508031C750FF90223
:100458007608031C760FFA027708031C770FFB0255
:100468000001031C0130A0024A2AF8077508031886
:10047800750FF90776080318760FFA077708031837
:10048800770FFB07000103180130A007F10DFC0BE3
:100498001E2A700DF80DF90DFA0DFB0DA00D74084C
:1004A800711C682AF8027508031C750FF902760892
:1004B800031C760FFA027708031C770FFB02000172
:1004C800031C0130A002792AF80775080318750F74
:1004D800F90776080318760FFA0777080318770FD5
:1004E800FB07000103180130A007F00D0730FC00DE
:1004F800700DF80DF90DFA0DFB0DA00D7408701CA8
:10050800972AF8027508031C750FF9027608031C70
:10051800760FFA027708031C770FFB020001031C11
:100528000130A002A82AF80775080318750FF90703
:1005380076080318760FFA0777080318770FFB0772
:10054800000103180130A007F00DFC0B7C2A70187D
:10055800BB2A7408F80775080318750FF907760899
:100568000318760FFA0777080318770FFB070800B8
:1005780083120313F101F201831624087202031D8A
:10058800C72A230871020318CF2A00000000F10AC5
:080598000319F20AC02A080051
:1005A000831203132230FC00F801F901FA01FB0168
:1005B000FC030319062B0310FB0CFA0CF90CF80CC6
:1005C000F30CF20CF10CF00C031CD82AFC030319F9
:1005D000F82A7408F80775080318750FF9077608E4
:1005E0000318760FFA0777080318770FFB07DC2A42
:1005F0007408F80775080318750FF90776080318CB
:0E060000760FFA0777080318770FFB0708003C
:10060E0083120313F101F201831622087202031DF5
:10061E00122B2108710203181A2B00000000F10A98
:08062E000319F20A0B2B08006E
:10063600013083120313EF0008309D0007309C0041
:06064600D0309B0008000B
:10064C004130831203139F00C43083169F00073080
:04065C008900080009
:1006600083120313B901BA01AF01B001B101B201A4
:10067000B301B401B501B601E001E101E201E3011A
:10068000E401E501DB01DC01DD01DE01BB01AE01BE
:10069000AA01AB01AC01AD01A401A501A601A7010E
:1006A0008F018E0183160C141830831290000800FD
:0A06B000831203136E089500080082
:1006BA0083120313861783162008A100A201A10D35
:1006CA00A20D211007237F30831286058316200886
:1006DA00FA3CA100A201031CA203A10DA20D211044
:0406EA0007230800DA
:1006EE00C730831203139F050A308316A300003010
:1006FE00A400BC2283121F151F1D862B832B1E08E0
:10070E00F100F00183161E08F0040030F104080019
:10071E0007308312031392000C309700FA308316C1
:10072E0092007D3083129500EE018316A001831294
:0A073E00A801A901B701B8010800E5
:1007480083120313E001E1018F018E01183090003C
:1007580087160A308316A3000030A400BC22DF30BD
:1007680083128705071AB92BB62B19309000071E7C
:10077800BE2BBB2B183090000F08F100F0010E08BB
:100788007004F8007108F9000030F9046108F700F6
:100798006008F600F401F5017808F0007908F10026
:1007A800F201F3017408F00775080318750FF107D3
:1007B80076080318760FF20777080318770FF30700
:1007C8007008E2007108E3007208E4007308E500AD
:1007D8007008DB007108DC007208DD007308DE00B9
:1007E8002230F400F501F601F701D022E830F400D8
:1007F8000330F500F601F70144217008A4007108E0
:10080800A5007208A6007308A700A70CA60CA50CE3
:0A081800A40CA7130130AE00080085
:1008220083120313F801F9011030FC00710DF80D69
:10083200F90D7408F8027508031C750FF902031804
:10084200292C7408F80775080318750FF9070310A7
:0A085200F00DF10DFC0B172C08004F
:10085C0083120313B901BA018F018E011830900075
:10086C0087170A308316A3000030A400BC227F3007
:10087C0083128705071B432C402C19309000071F4F
:10088C00482C452C183090000F08F100F0010E0890
:10089C007004F8007108F9000030F9043A08F70008
:1008AC003908F600F401F5017808F0007908F10038
:1008BC00F201F3017408F00775080318750FF107BE
:1008CC0076080318760FF20777080318770FF307EB
:1008DC007008AF007108B0007208B1007308B20064
:1008EC007008B3007108B4007208B5007308B60044
:1008FC002230F400F501F601F701D022E830F400C3
:10090C000330F500F601F70144217008AA007108C4
:10091C00AB007208AC007308AD00AD0CAC0CAB0CAA
:0A092C00AA0CAD130130BB00080057
:1009360083120313FB01FA01F9018030F800F10C70
:10094600F00C031CAF2C7408F90775080318750F13
:10095600FA070318FB0A0310F01FB72C7408FA07EE
:1009660075080318750FFB07FB0CFA0CF90CF80C4D
:10097600031CA22C7B08F3007A08F2007908F10028
:060986007808F0000800F3
:10098C00DF30831203131F05F000183070049F0032
:10099C000A308316A3000030A400BC2283121F155A
:1009AC001F1DD92CD62C1E08F100F00183161E0831
:0809BC00F0040030F104080012
:1009C400CF30831203131F05F000083070049F001A
:1009D4000A308316A3000030A400BC2283121F1522
:1009E4001F1DF52CF22C1E08F100F00183161E08C1
:0809F400F0040030F1040800DA
:1009FC000F30831603138500831285013130831663
:100A0C00860083128601503083168700831287017B
:100A1C00262330238F231B23073083168100F830C5
:100A2C008B0083128101C101C201C001C401C30149
:100A3C00BD01BC01BF01BE0183123B1C652D003002
:100A4C002D02031D332D00302C02031D332D0030DD
:100A5C002B02031D332D0A302A020318392D0617D9
:100A6C00FA30EE00642D00302D02031D472D0030AE
:100A7C002C02031D472D00302B02031D472D1E3069
:100A8C002A0203184D2D0617C830EE00642D0030D5
:100A9C002D02031D5B2D00302C02031D5B2D00303D
:100AAC002B02031D5B2D32302A020318612D061711
:100ABC00AF30EE00642DBF308605EE01BB012E1C5D
:100ACC00AF2D00302702031D752D00302602031DAB
:100ADC00752D00302502031D752D0A3024020318D4
:100AEC007D2DFA308316A00083128715AE2D0030B1
:100AFC002702031D8B2D00302602031D8B2D003089
:100B0C002502031D8B2D1E3024020318932D7830E3
:100B1C008316A00083128715AE2D00302702031D0B
:100B2C00A12D00302602031DA12D00302502031D2E
:100B3C00A12D323024020318AA2D3C308316A000BC
:100B4C00083083128704AE2D8316A00183128711FF
:0A0B5C00AE0158235D23222DB22DB7
:02400E004A2F37
:00000001FF
