:040000008A15002835
:10000800FF00030E83018316B3000A08B2008A01B9
:1000180070088312A6007108A5007208A40073086E
:10002800A3007408A2007C08A1000B1D22298316D6
:10003800A80A8312E70AE80A83162808023A031D69
:100048006728A801E82470088312EB007108EC0007
:100058003230F4000030F5000025FF30F4000330A2
:10006800F5002B2570088316A6007108A700D12576
:100078007008A0007108A1003230F4000030F500CB
:100088000025FF30F4000330F5002B257008E3004D
:100098007108E40083162708003C031D552826082C
:1000A800173C031C612883126408003C031D5E286A
:1000B8006308163C031C61286528831203308804F2
:1000C8006728FC308805831209186D280815013047
:1000D800C9008918722888150130CE0009197628B8
:1000E8000130EE004908013A031D8F288316A40A3F
:1000F8008312E50A65080F3A031D8528E5010430D7
:10010800880683162408963A031D8F28A4018312B3
:10011800C901FB30880583124E08013A031DA9283E
:100128008316A50A8312E60A66080F3A031D9F285C
:10013800E6010830880683162508963A031DA92883
:10014800A5018312CE01F730880583126708033AA8
:10015800031DD028E701B52570088312D200710865
:10016800D3003230F4000030F5000025FF30F400F1
:100178000330F5002B2570088316B4007108B5000C
:100188007108003C031DCA2870080A3C0318D028CF
:100198008312E90A0319EA0A83126808DB3A031D85
:1001A8000E29E801EE30F0002A30F1006908F40069
:1001B8006A08F50000257008F5007108F600F701D7
:1001C800F8017508F0007608F1007708F200780861
:1001D800F300F30CF20CF10CF00CF3137008831617
:1001E800A9007108AA007208AB007308AC00BC3003
:1001F800F4000230F500F601F701F22170088316C9
:10020800AD007108AE007208AF007308B000831229
:10021800E901EA016F08031920298316B10AFE30A3
:100228008D0518308312900083163108043A031D97
:100238002029B1014825ED25FB308B0583120C1CC4
:100248002D29DD0A0319DE0ADB0A0319DC0AFE3050
:100258008C050D1C5C2948080319432983162308BB
:10026800F000F101700883129C00831622088312A3
:100278009B00C80109309D008F018E015A29831601
:100288002208403CF3002308031C013E9C3CF40078
:100298007408F000F101700883129C0073089B0039
:1002A80008309D000130C8008F018E01FE308D0599
:1002B8002608F0002508F1002408F2002308F300BE
:1002C8002208F4002108FC00831632088A00330E45
:0802D8008300FF0E7F0E0900F8
:0E02E000213083120313FD00FD0B742908006A
:1002EE000F3083120313FC004730FD00FD0B7D29F8
:0A02FE00FC0B7D2900000000080041
:06030800000000000800E7
:10030E0083160313BE1B8E29831286119029831226
:10031E00861583163E1B9629831206119829831281
:10032E0006158316BE1A9E2983128610A0298312E3
:10033E00861483163E1AA62983120610A829831244
:10034E0006146D18AC290616AD29061286168421E0
:10035E0086128316BE19B62983128611B829831206
:10036E00861583163E19BE2983120611C0298312E3
:10037E0006158316BE18C62983128610C829831245
:10038E00861483163E18CE2983120610D0298312A6
:10039E0006146D18D4290616D52906128616842140
:0E03AE0086126D1CDC297721DD2970210800E4
:1003BC0083120313F101F201831640087202031D2C
:1003CC00E9293F0871020318F12900000000F10A25
:0803DC000319F20AE2290800EE
:1003E40083120313FB01FA01F901F801A001730D53
:1003F400F80D7408F8027508031C750FF9027608E5
:10040400031C760FFA027708031C770FFB02000126
:10041400031C0130A002F30D0730FC00730DF80D2E
:10042400F90DFA0DFB0DA00D7408731C2B2AF802AC
:100434007508031C750FF9027608031C760FFA027F
:100444007708031C770FFB020001031C0130A00294
:100454003C2AF80775080318750FF907760803187E
:10046400760FFA0777080318770FFB0700010318C4
:100474000130A007F30DFC0B102A720DF80DF90DD5
:10048400FA0DFB0DA00D7408731C5A2AF8027508A6
:10049400031C750FF9027608031C760FFA0277081D
:1004A400031C770FFB020001031C0130A0026B2A1E
:1004B400F80775080318750FF90776080318760FFF
:1004C400FA0777080318770FFB07000103180130B8
:1004D400A007F20D0730FC00720DF80DF90DFA0DAE
:1004E400FB0DA00D7408721C892AF8027508031C00
:1004F400750FF9027608031C760FFA027708031CBD
:10050400770FFB020001031C0130A0029A2AF807AE
:1005140075080318750FF90776080318760FFA079C
:1005240077080318770FFB07000103180130A007B1
:10053400F20DFC0B6E2A710DF80DF90DFA0DFB0D81
:10054400A00D7408721CB82AF8027508031C750FF4
:10055400F9027608031C760FFA027708031C770F5A
:10056400FB020001031C0130A002C92AF807750828
:100574000318750FF90776080318760FFA0777083A
:100584000318770FFB07000103180130A007F10DD2
:100594000730FC00710DF80DF90DFA0DFB0DA00DDF
:1005A4007408711CE72AF8027508031C750FF90218
:1005B4007608031C760FFA027708031C770FFB02F8
:1005C4000001031C0130A002F82AF807750803187B
:1005D400750FF90776080318760FFA0777080318DA
:1005E400770FFB07000103180130A007F10DFC0B86
:1005F400CC2A700DF80DF90DFA0DFB0DA00D740841
:10060400711C162BF8027508031C750FF902760885
:10061400031C760FFA027708031C770FFB02000114
:10062400031C0130A002272BF80775080318750F67
:10063400F90776080318760FFA0777080318770F77
:10064400FB07000103180130A007F00D0730FC0080
:10065400700DF80DF90DFA0DFB0DA00D7408701C4A
:10066400452BF8027508031C750FF9027608031C64
:10067400760FFA027708031C770FFB020001031CB4
:100684000130A002562BF80775080318750FF907F7
:1006940076080318760FFA0777080318770FFB0715
:1006A400000103180130A007F00DFC0B2A2B701871
:1006B400692B7408F80775080318750FF90776088D
:1006C4000318760FFA0777080318770FFB0708005B
:1006D400831203132230FC00F801F901FA01FB0133
:1006E400FC030319A02B0310FB0CFA0CF90CF80CF7
:1006F400F30CF20CF10CF00C031C722BFC03031929
:10070400922B7408F80775080318750FF907760813
:100714000318760FFA0777080318770FFB07762B71
:100724007408F80775080318750FF9077608031895
:0E073400760FFA0777080318770FFB07080007
:0E0742008316031337088A0036088200080069
:1007500083120313F101F20183163D087202031D97
:10076000B32B3C0871020318BB2B00000000F10AF8
:080770000319F20AAC2B08008A
:10077800831203136D1083163C08BE0087216D1485
:02078800080067
:10078A008312031386174F088316BC00BD01BC0DE4
:10079A00BD0D3C10A8237F30831286054F08FA3C12
:1007AA008316BC00BD01031CBD03BC0DBD0D3C106E
:0407BA00A823080068
:1007BE0083120313F101F201831639087202031D2D
:1007CE00EA2B380871020318FE2BF301F4010030F6
:1007DE007402031DF42B9B3073020318FA2BF30AD9
:1007EE000319F40AEE2BF10A0319F20AE32B08009F
:1007FE00013083120313C80008309D0007309C009F
:10080E00D0309B00D0308316A2000730A300080022
:10081E00212C803083160313B800342CC030B8005E
:10082E00342C9430B800342CD430B800342C8030B2
:10083E00B800342C831603133808013A0319102C10
:10084E003808023A0319152C3808033A0319182CE4
:10085E003808043A03191B2C1E2C3903F0003808F3
:10086E00F0077008B8007008BE0087216D1083165F
:10087E00BB013B083A078400000803194F2C3B08C4
:10088E003A0784000008BC00BC238316BB0A402C28
:06089E0083126D14080036
:1008A400831603138612061206108610061186118B
:1008B40083128612061286110611861006107721FD
:1008C40077217721861406148616842186127721CF
:1008D4008616842186127721861684218612772132
:1008E40006108616842186127721861684218612A4
:1008F40086108615861684218612772186110614A1
:100904008616842186120610861684218612772183
:10091400861684218612061486168421861277216F
:10092400061086168421861286150615861406146A
:0C09340086168421861277216D140800BD
:0A0940008312031354089500080009
:10094A0007308312031392000C309700FA30831693
:10095A0092007D3083129500D401CF01D001D101DC
:06096A00D501D6010800D2
:1009700083120313DD01DE01DF01E001E101E20189
:10098000D701D801D901DA01DB01DC01BC01BD01CD
:10099000BE01BF01C001C101C201C301BA01BB0157
:1009A000C401C501C601C701CA01CB01CC01CD01FB
:1009B0008F018E0183160C141830831290000800EA
:1009C0004130831203139F00C43083169F00080038
:1009D000C730831203139F050A308316BF0000300F
:1009E000C000DE2183121F151F1DF72CF42C1E08DA
:1009F000F100F00183161E08F0040030F104080035
:100A000083120313FB01FA01F9018030F800F10CA5
:100A1000F00C031C142D7408F90775080318750FE2
:100A2000FA070318FB0A0310F01F1C2D7408FA07BD
:100A300075080318750FFB07FB0CFA0CF90CF80C82
:100A4000031C072D7B08F3007A08F2007908F100F7
:060A50007808F000080028
:100A560083120313F801F9011030FC00710DF80D33
:100A6600F90D7408F8027508031C750FF9020318CE
:100A7600432D7408F80775080318750FF907031056
:0A0A8600F00DF10DFC0B312D0800FE
:100A900083120313DD01DE018F018E0118309000F7
:100AA00087170A308316BF000030C000DE217F3078
:100AB00083128705071B5D2D5A2D19309000071FE3
:100AC000622D5F2D183090000F08F100F0010E0824
:100AD0007004F8007108F9000030F9045E08F700AE
:100AE0005D08F600F401F5017808F0007908F100DE
:100AF000F201F3017408F00775080318750FF10788
:100B000076080318760FF20777080318770FF307B4
:100B10007008DF007108E0007208E1007308E2006D
:100B20007008D7007108D8007208D9007308DA007D
:100B30002230F400F501F601F7016A23E830F400F1
:100B40000330F500F601F701F2217008C4007108C6
:100B5000C5007208C6007308C700C70CC60CC50CD8
:0A0B6000C40CC7130130BA000800EE
:100B6A00DF30831203131F05F000183070049F0052
:100B7A000A308316BF000030C000DE2183121F1521
:100B8A001F1DC82DC52D1E08F100F00183161E0871
:080B9A00F0040030F104080032
:100BA200CF30831203131F05F000083070049F003A
:100BB2000A308316BF000030C000DE2183121F15E9
:100BC2001F1DE42DE12D1E08F100F00183161E0801
:080BD200F0040030F1040800FA
:100BDA0083120313DB01DC018F018E0118309000B0
:100BEA0087160A308316BF000030C000DE21DF30CE
:100BFA0083128705071A022EFF2D19309000071E4F
:100C0A00072E042E183090000F08F100F0010E088C
:100C1A007004F8007108F9000030F9045C08F70064
:100C2A005B08F600F401F5017808F0007908F10094
:100C3A00F201F3017408F00775080318750FF1073C
:100C4A0076080318760FF20777080318770FF30769
:100C5A007008BC007108BD007208BE007308BF00AE
:100C6A007008C0007108C1007208C2007308C3008E
:100C7A002230F400F501F601F7016A23E830F400A6
:100C8A000330F500F601F701F2217008CA00710875
:100C9A00CB007208CC007308CD00CD0CCC0CCB0C69
:0A0CAA00CA0CCD130130BB00080096
:100CB4000F30831603138500831285018316860182
:100CC40083128601503083168700831287018316AE
:100CD4008801831288010F308316890083128901E9
:020CE400080006
:100CE600A1238A110A128000840AB60A0319B70AD8
:080CF600F003031D732E08003A
:10100000483083120313A7006130A8007330A90091
:101010006E30AA006130AB007730AC006930AD00B3
:10102000AE015330AF007030B0006530B1006530B4
:10103000B2006430B3003A30B400B5016D30B60090
:101040002F30B7007330B800B9018A115A268A15BB
:101050008A11E0248A158A11B8248A158A11A524D8
:101060008A158A11FF238A158A1152248A150130A4
:101070008316BE008A1187218A150C308316BE00A4
:101080008A1187218A1501308316B8000630B9000D
:101090002730BA008A110F248A1502308316B8004F
:1010A0000130B9002F30BA008A110F248A1502309E
:1010B0008316B8000E30B9003630BA008A110F24FA
:1010C0008A15073083168100F0308B00831281016E
:1010D000E901EA01E601E501E801E7018316A5015E
:1010E000A401A8018312EE010130EF006F0803197B
:1010F00003293A1CBB2800304702031D8928003011
:101100004602031D892800304502031D89280A3044
:10111000440203188F280617FA30D400BA2800308A
:101120004702031D9D2800304602031D9D28003004
:101130004502031D9D281E3044020318A3280617EC
:10114000C830D400BA2800304702031DB12800304F
:101150004602031DB12800304502031DB12832307C
:1011600044020318B7280617AF30D400BA28BF309E
:101170008605D401BA013B1CFD2800304D02031D39
:10118000CB2800304C02031DCB2800304B02031D3E
:10119000CB280A304A020318D128FA30CF0087152D
:1011A000FC2800304D02031DDF2800304C02031DD7
:1011B000DF2800304B02031DDF281E304A020318CF
:1011C000E5287830CF008715FC2800304D02031D3C
:1011D000F32800304C02031DF32800304B02031D9E
:1011E000F32832304A020318FA283C30CF00083086
:1011F0008704FC28CF018711BB018A11A0248A151E
:101200008A11C5238A1583126E0803193729EF0145
:10121000D401CF0183162308073A031D1129D030CA
:101220002206031D1829A030A2000F30A300242994
:1012300023080F3A031D1E29A0302206031D24296E
:10124000D030A2000730A300083083129D00013087
:10125000900083160D148830B8001330B9008A113D
:10126000DF238A1583120313EE010130EF00762885
:0212700038291B
:02400E004A2F37
:00000001FF
