:02000000042CCE
:10000800FF00030E8301D9000A08D8008A0170088E
:10001800A1000B1C1B28061A142806150130CE0057
:10002800861A192886150130CF00FE308B050B1D66
:10003800F328AC0AD20AD10AD00A2C08023A031DC6
:100048006328AC01022370088312C8007108C90034
:100058003230F4000030F5007223FF30F400033032
:10006800F500E5227008CA007108CB005823700813
:100078008312CC007108CD003230F4000030F50056
:100088007223FF30F4000330F500E5227008AD005C
:100098007108AE004B08003C031D54284A08223C56
:1000A800031C5F282E08003C031D5C282D08223CF9
:1000B800031C5F28612886146328FD3086054E08D6
:1000C800013A031D7828C70AD70A57080F3A031DB3
:1000D8007028D701043086064708963A031D782809
:1000E800C701CE01FB3086054F08013A031D8D2854
:1000F800D30AD60A56080F3A031D8528D6010830B8
:1001080086065308963A031D8D28D301CF01F73090
:1001180086055208073A031DB128D2013E2370080C
:100128008312AF007108B0003230F4000030F500DF
:100138007223FF30F4000330F500E5227008A200B6
:100148007108A3007108003C031DAC2870080A3C24
:100158000318B128D40A0319D50A5108DB3A031D3C
:10016800EB28D101EE30F0002A30F1005408F400F9
:100178005508F50072237008F5007108F600F701BC
:10018800F8017508F0007608F1007708F2007808A1
:10019800F300F30CF20CF10CF00CF3137008A4004C
:1001A8007108A5007208A6007308A700BC30F40007
:1001B8000230F500F601F70106217008A800710861
:1001C800A9007208AA007308AB00D401D501500831
:1001D8000F3A031DF128D0019D23FB308B050C1C21
:1001E800FD28E00A0319E10AB50A0319B60AFE3028
:1001F8008C052108F00058088A00590E8300FF0E6C
:040208007F0E09005C
:10020C0083120313FB01FA01F901F801A001730D2C
:10021C00F80D7408F8027508031C750FF9027608BE
:10022C00031C760FFA027708031C770FFB02000100
:10023C00031C0130A002F30D0730FC00730DF80D08
:10024C00F90DFA0DFB0DA00D7408731C3F29F80273
:10025C007508031C750FF9027608031C760FFA0259
:10026C007708031C770FFB020001031C0130A0026E
:10027C005029F80775080318750FF9077608031845
:10028C00760FFA0777080318770FFB07000103189E
:10029C000130A007F30DFC0B2429720DF80DF90D9C
:1002AC00FA0DFB0DA00D7408731C6E29F80275086D
:1002BC00031C750FF9027608031C760FFA027708F7
:1002CC00031C770FFB020001031C0130A0027F29E5
:1002DC00F80775080318750FF90776080318760FD9
:1002EC00FA0777080318770FFB0700010318013092
:1002FC00A007F20D0730FC00720DF80DF90DFA0D88
:10030C00FB0DA00D7408721C9D29F8027508031CC6
:10031C00750FF9027608031C760FFA027708031C96
:10032C00770FFB020001031C0130A002AE29F80775
:10033C0075080318750FF90776080318760FFA0776
:10034C0077080318770FFB07000103180130A0078B
:10035C00F20DFC0B8229710DF80DF90DFA0DFB0D48
:10036C00A00D7408721CCC29F8027508031C750FBB
:10037C00F9027608031C760FFA027708031C770F34
:10038C00FB020001031C0130A002DD29F8077508EF
:10039C000318750FF90776080318760FFA07770814
:1003AC000318770FFB07000103180130A007F10DAC
:1003BC000730FC00710DF80DF90DFA0DFB0DA00DB9
:1003CC007408711CFB29F8027508031C750FF902DF
:1003DC007608031C760FFA027708031C770FFB02D2
:1003EC000001031C0130A0020C2AF8077508031841
:1003FC00750FF90776080318760FFA0777080318B4
:10040C00770FFB07000103180130A007F10DFC0B5F
:10041C00E029700DF80DF90DFA0DFB0DA00D740807
:10042C00711C2A2AF8027508031C750FF90276084C
:10043C00031C760FFA027708031C770FFB020001EE
:10044C00031C0130A0023B2AF80775080318750F2E
:10045C00F90776080318760FFA0777080318770F51
:10046C00FB07000103180130A007F00D0730FC005A
:10047C00700DF80DF90DFA0DFB0DA00D7408701C24
:10048C00592AF8027508031C750FF9027608031C2B
:10049C00760FFA027708031C770FFB020001031C8E
:1004AC000130A0026A2AF80775080318750FF907BE
:1004BC0076080318760FFA0777080318770FFB07EF
:1004CC00000103180130A007F00DFC0B3E2A701838
:1004DC007D2A7408F80775080318750FF907760854
:1004EC000318760FFA0777080318770FFB07080035
:1004FC00831203132230FC00F801F901FA01FB010D
:10050C00FC030319B42A0310FB0CFA0CF90CF80CBD
:10051C00F30CF20CF10CF00C031C862AFC030319EF
:10052C00A62A7408F80775080318750FF9077608DA
:10053C000318760FFA0777080318770FFB078A2A38
:10054C007408F80775080318750FF907760803186F
:0E055C00760FFA0777080318770FFB070800E1
:10056A0083120313F101F20163087202031DBF2A09
:10057A00620871020318C72A00000000F10A031971
:06058A00F20AB92A080084
:1005900007308312031392000C3097000C309D003B
:1005A000FA30831692007D30831295007D309B00D7
:0205B000080041
:1005B2004130831203139F00C03083169F00FF3027
:0805C2008500073089000800E4
:1005CA0083120313F801F9011030FC00710DF80DC4
:1005DA00F90D7408F8027508031C750FF90203185F
:1005EA00FD2A7408F80775080318750FF907031030
:0A05FA00F00DF10DFC0BEB2A0800D8
:10060400C730831203139F050A30E2000030E30071
:10061400B5221F151F1D0F2B0C2B1E08F100F00116
:0C06240083161E08F0040030F1040800EA
:1006300083120313E001E101DC01DD01DE01DF01D2
:10064000B701B801B901BA01B501B601B101B201F2
:10065000B301B401C301C401C501C601BF01C0019A
:10066000C101C201BB01BC01BD01BE018F018E01F0
:0C06700083160C14183083129000080050
:10067C00D730831203131F05F000103070049F0055
:10068C000A30E2000030E300B5221F151F1D4F2B6E
:10069C004C2B1E08F100F00183161E08F0040030EC
:0406AC00F10408004D
:1006B000CF30831203131F05F000083070049F0031
:1006C0000A30E2000030E300B5221F151F1D692B20
:1006D000662B1E08F100F00183161E08F00400309E
:0406E000F104080019
:1006E40083120313FB01FA01F9018030F800F10CC5
:1006F400F00C031C862B7408F90775080318750F92
:10070400FA070318FB0A0310F01F8E2B7408FA076C
:1007140075080318750FFB07FB0CFA0CF90CF80CA1
:10072400031C792B7B08F3007A08F2007908F100A6
:060734007808F000080047
:10073A0083120313E001E1018F018E0187170A304A
:10074A00E2000030E300B5227F308705071BAE2B9D
:10075A00AB2B19309000071FB32BB02B1830900029
:10076A000F08F100F0010E087004F8007108F90092
:10077A000030F9046108F7006008F600F401F50199
:10078A007808F0007908F100F201F3017408F00723
:10079A0075080318750FF10776080318760FF20724
:1007AA0077080318770FF3077008DC007108DD007B
:1007BA007208DE007308DF007008B7007108B8001D
:1007CA007208B9007308BA002230F400F501F60184
:1007DA00F7017E22E830F4000330F500F601F70154
:1007EA0006217008BF007108C0007208C1007308B2
:0E07FA00C200C20CC10CC00CBF0CC213080020
:1008080071308316031386008312860150308316D5
:10081800870083128701D9221823C822073083163C
:100828008100F8308B0083128101D401D501D601F3
:10083800D701D101D201D301C701AC010030420276
:10084800031D302C00304102031D302C00304002C3
:10085800031D302C0A303F020318332C452C00307E
:100868004202031D412C00304102031D412C00307F
:100878004002031D412C1E303F020318452CFB305B
:10088800870500303E02031D532C00303D02031D36
:10089800532C00303C02031D532C14303B02031828
:0E08A800572C8717592CF7308705222C5A2C15
:02400E004A2F37
:00000001FF
