:040000008A15002835
:10000800FF00030E83018316B3000A08B2008A01B9
:1000180070088312A6007108A5007208A40073086E
:10002800A3007408A2007C08A1000B1D1E298316DA
:10003800A70AA60A8312E80A83162708023A031DAC
:100048006728A701DF2470088312EB007108EC0011
:100058003230F4000030F500F724FF30F4000330AC
:10006800F500222570088316A4007108A500C8258C
:100078007008A2007108A3003230F4000030F500C7
:10008800F724FF30F4000330F50022257008E30060
:100098007108E40083162508003C031D5528240830
:1000A800173C031C612883126408003C031D5E286A
:1000B8006308163C031C61286528831203308804F2
:1000C8006728FC308805831209186D280815013047
:1000D800C9008918722888150130CE0009197628B8
:1000E8000130EA004908013A031D8F288316A80A3F
:1000F8008312E90A69080F3A031D8528E9010430CB
:10010800880683162808963A031D8F28A8018312AB
:10011800C901FB30880583124E08013A031DA52842
:10012800EF0AE50A65080F3A031D9D28E501083026
:1001380088066F08963A031DA528EF01CE01F7300F
:10014800880583162608033A031DCC28A601AC258A
:1001580070088312D2007108D3003230F4000030E6
:10016800F500F724FF30F4000330F500222570086D
:100178008316B4007108B5007108003C031DC62839
:1001880070080A3C0318CC288312E60A0319E70A08
:1001980083126808DB3A031D0A29E801EE30F000F3
:1001A8002A30F1006608F4006708F500F7247008A3
:1001B800F5007108F600F701F8017508F0007608F7
:1001C800F1007708F2007808F300F30CF20CF10C58
:1001D800F00CF31370088316A9007108AA007208BE
:1001E800AB007308AC00BC30F4000230F500F60137
:1001F800F701EE2170088316AD007108AE00720891
:10020800AF007308B0008312E601E7016E08031916
:100218001C298316B10AFE308D0518308312900010
:1002280083163108043A031D1C29B1013F25E42532
:10023800FB308B0583120C1C2929DD0A0319DE0A01
:10024800DB0A0319DC0AFE308C050D1C5829480806
:1002580003193F2983162108F000F1017008831261
:100268009C008316200883129B00C80109309D005A
:100278008F018E01562983162008403CF30021087F
:10028800031C013E9C3CF4007408F000F101700866
:1002980083129C0073089B0008309D000130C80041
:1002A8008F018E01FE308D052608F0002508F1002B
:1002B8002408F2002308F3002208F4002108FC00B7
:1002C800831632088A00330E8300FF0E7F0E090062
:0E02D800213083120313FD00FD0B7029080076
:1002E6000F3083120313FC004730FD00FD0B792904
:0A02F600FC0B79290000000008004D
:06030000000000000800EF
:1003060083160313BE1B8A29831286118C29831236
:10031600861583163E1B9229831206119429831291
:1003260006158316BE1A9A29831286109C298312F3
:10033600861483163E1AA22983120610A429831254
:1003460006146D18A8290616A929061286168021F4
:1003560086128316BE19B22983128611B429831216
:10036600861583163E19BA2983120611BC298312F3
:1003760006158316BE18C22983128610C429831255
:10038600861483163E18CA2983120610CC298312B6
:1003960006146D18D0290616D12906128616802154
:0E03A60086126D1CD8297321D9296C210800FC
:1003B40083120313F101F201831640087202031D34
:1003C400E5293F0871020318ED2900000000F10A35
:0803D4000319F20ADE290800FA
:1003DC0083120313FB01FA01F901F801A001730D5B
:1003EC00F80D7408F8027508031C750FF9027608ED
:1003FC00031C760FFA027708031C770FFB0200012F
:10040C00031C0130A002F30D0730FC00730DF80D36
:10041C00F90DFA0DFB0DA00D7408731C272AF802B8
:10042C007508031C750FF9027608031C760FFA0287
:10043C007708031C770FFB020001031C0130A0029C
:10044C00382AF80775080318750FF907760803188A
:10045C00760FFA0777080318770FFB0700010318CC
:10046C000130A007F30DFC0B0C2A720DF80DF90DE1
:10047C00FA0DFB0DA00D7408731C562AF8027508B2
:10048C00031C750FF9027608031C760FFA02770825
:10049C00031C770FFB020001031C0130A002672A2A
:1004AC00F80775080318750FF90776080318760F07
:1004BC00FA0777080318770FFB07000103180130C0
:1004CC00A007F20D0730FC00720DF80DF90DFA0DB6
:1004DC00FB0DA00D7408721C852AF8027508031C0C
:1004EC00750FF9027608031C760FFA027708031CC5
:1004FC00770FFB020001031C0130A002962AF807BB
:10050C0075080318750FF90776080318760FFA07A4
:10051C0077080318770FFB07000103180130A007B9
:10052C00F20DFC0B6A2A710DF80DF90DFA0DFB0D8D
:10053C00A00D7408721CB42AF8027508031C750F00
:10054C00F9027608031C760FFA027708031C770F62
:10055C00FB020001031C0130A002C52AF807750834
:10056C000318750FF90776080318760FFA07770842
:10057C000318770FFB07000103180130A007F10DDA
:10058C000730FC00710DF80DF90DFA0DFB0DA00DE7
:10059C007408711CE32AF8027508031C750FF90224
:1005AC007608031C760FFA027708031C770FFB0200
:1005BC000001031C0130A002F42AF8077508031887
:1005CC00750FF90776080318760FFA0777080318E2
:1005DC00770FFB07000103180130A007F10DFC0B8E
:1005EC00C82A700DF80DF90DFA0DFB0DA00D74084D
:1005FC00711C122BF8027508031C750FF902760892
:10060C00031C760FFA027708031C770FFB0200011C
:10061C00031C0130A002232BF80775080318750F73
:10062C00F90776080318760FFA0777080318770F7F
:10063C00FB07000103180130A007F00D0730FC0088
:10064C00700DF80DF90DFA0DFB0DA00D7408701C52
:10065C00412BF8027508031C750FF9027608031C70
:10066C00760FFA027708031C770FFB020001031CBC
:10067C000130A002522BF80775080318750FF90703
:10068C0076080318760FFA0777080318770FFB071D
:10069C00000103180130A007F00DFC0B262B70187D
:1006AC00652B7408F80775080318750FF907760899
:1006BC000318760FFA0777080318770FFB07080063
:1006CC00831203132230FC00F801F901FA01FB013B
:1006DC00FC0303199C2B0310FB0CFA0CF90CF80C03
:1006EC00F30CF20CF10CF00C031C6E2BFC03031935
:1006FC008E2B7408F80775080318750FF907760820
:10070C000318760FFA0777080318770FFB07722B7D
:10071C007408F80775080318750FF907760803189D
:0E072C00760FFA0777080318770FFB0708000F
:0E073A008316031337088A0036088200080071
:1007480083120313F101F20183163D087202031D9F
:10075800AF2B3C0871020318B72B00000000F10A08
:080768000319F20AA82B080096
:10077000831203136D1083163C08BE0083216D1491
:0207800008006F
:100782008312031386174F088316BC00BD01BC0DEC
:10079200BD0D3C10A4237F30831286054F08FA3C1E
:1007A2008316BC00BD01031CBD03BC0DBD0D3C1076
:0407B200A423080074
:1007B60083120313F101F201831639087202031D35
:1007C600E62B380871020318FA2BF301F401003006
:1007D6007402031DF02B9B3073020318F62BF30AE9
:1007E6000319F40AEA2BF10A0319F20ADF2B0800AF
:1007F600013083120313C80008309D0007309C00A7
:06080600D0309B00080049
:10080C00182C803083160313B8002B2CC030B80082
:10081C002B2C9430B8002B2CD430B8002B2C8030DF
:10082C00B8002B2C831603133808013A0319072C34
:10083C003808023A03190C2C3808033A03190F2C08
:10084C003808043A0319122C152C3903F000380817
:10085C00F0077008B8007008BE0083216D10831675
:10086C00BB013B083A07840000080319462C3B08DF
:10087C003A0784000008BC00B8238316BB0A372C47
:06088C0083126D14080048
:10089200831603138612061206108610061186119D
:1008A2008312861206128611061186100610732113
:1008B20073217321861406148616802186127321F1
:1008C2008616802186127321861680218612732154
:1008D20006108616802186127321861680218612C2
:1008E20086108615861680218612732186110614BB
:1008F20086168021861206108616802186127321A2
:10090200861680218612061486168021861273218D
:100912000610861680218612861506158614061480
:0C09220086168021861273216D140800D7
:0A092E00831203135408950008001B
:1009380007308312031392000C309700FA308316A5
:1009480092007D3083129500D401CF01D001D101EE
:06095800D501D6010800E4
:10095E0083120313DD01DE01DF01E001E101E2019B
:10096E00D701D801D901DA01DB01DC01BC01BD01DF
:10097E00BE01BF01C001C101C201C301BA01BB0169
:10098E00C401C501C601C701CA01CB01CC01CD010D
:10099E008F018E0183160C141830831290000800FC
:1009AE004130831203139F00C43083169F0008004A
:1009BE00C730831203139F050A308316BF00003021
:1009CE00C000DA2183121F151F1DEE2CEB2C1E0802
:1009DE00F100F00183161E08F0040030F104080047
:1009EE0083120313FB01FA01F9018030F800F10CB8
:1009FE00F00C031C0B2D7408F90775080318750FFE
:100A0E00FA070318FB0A0310F01F132D7408FA07D8
:100A1E0075080318750FFB07FB0CFA0CF90CF80C94
:100A2E00031CFE2C7B08F3007A08F2007908F10013
:060A3E007808F00008003A
:100A440083120313F801F9011030FC00710DF80D45
:100A5400F90D7408F8027508031C750FF9020318E0
:100A64003A2D7408F80775080318750FF907031071
:0A0A7400F00DF10DFC0B282D080019
:100A7E0083120313DD01DE018F018E011830900009
:100A8E0087170A308316BF000030C000DA217F308E
:100A9E0083128705071B542D512D19309000071F07
:100AAE00592D562D183090000F08F100F0010E0848
:100ABE007004F8007108F9000030F9045E08F700C0
:100ACE005D08F600F401F5017808F0007908F100F0
:100ADE00F201F3017408F00775080318750FF1079A
:100AEE0076080318760FF20777080318770FF307C7
:100AFE007008DF007108E0007208E1007308E20080
:100B0E007008D7007108D8007208D9007308DA008F
:100B1E002230F400F501F601F7016623E830F40007
:100B2E000330F500F601F701EE217008C4007108DC
:100B3E00C5007208C6007308C700C70CC60CC50CEA
:0A0B4E00C40CC7130130BA00080000
:100B5800DF30831203131F05F000183070049F0064
:100B68000A308316BF000030C000DA2183121F1537
:100B78001F1DBF2DBC2D1E08F100F00183161E0895
:080B8800F0040030F104080044
:100B9000CF30831203131F05F000083070049F004C
:100BA0000A308316BF000030C000DA2183121F15FF
:100BB0001F1DDB2DD82D1E08F100F00183161E0825
:080BC000F0040030F10408000C
:100BC80083120313DB01DC018F018E0118309000C2
:100BD80087160A308316BF000030C000DA21DF30E4
:100BE80083128705071AF92DF62D19309000071E74
:100BF800FE2DFB2D183090000F08F100F0010E08B3
:100C08007004F8007108F9000030F9045C08F70076
:100C18005B08F600F401F5017808F0007908F100A6
:100C2800F201F3017408F00775080318750FF1074E
:100C380076080318760FF20777080318770FF3077B
:100C48007008BC007108BD007208BE007308BF00C0
:100C58007008C0007108C1007208C2007308C300A0
:100C68002230F400F501F601F7016623E830F400BC
:100C78000330F500F601F701EE217008CA0071088B
:100C8800CB007208CC007308CD00CD0CCC0CCB0C7B
:0A0C9800CA0CCD130130BB000800A8
:100CA2000F30831603138500831285018316860194
:100CB20083128601503083168700831287018316C0
:100CC2008801831288010F308316890083128901FB
:020CD200080018
:100CD4009D238A110A128000840AB60A0319B70AEE
:080CE400F003031D6A2E080055
:10100000533083120313A7007030A8006530A90085
:101010006530AA006430AB003A30AC00AD016D30F1
:10102000AE002F30AF007330B000B1014830B200D5
:101030006130B3007330B4006E30B5006130B6007B
:101040007730B7006930B800B9018A1151268A1586
:101050008A11D7248A158A11AF248A158A119C24F3
:101060008A158A11FB238A158A1149248A150130B1
:101070008316BE008A1183218A150C308316BE00A8
:101080008A1183218A1501308316B8000630B90011
:101090003230BA008A1106248A1502308316B8004D
:1010A0000130B9002730BA008A1106248A150230AF
:1010B0008316B8000E30B9002E30BA008A1106240B
:1010C0008A15073083168100F0308B00831281016E
:1010D000E601E701E501E901E8018316A6018312B3
:1010E000EF018316A801A7018312EA010130EE0087
:1010F0006E08031905293A1CBD2800304702031D5C
:101100008B2800304602031D8B2800304502031D4A
:101110008B280A304402031891280617FA30D400AD
:10112000BC2800304702031D9F2800304602031DE3
:101130009F2800304502031D9F281E3044020318DB
:10114000A5280617C830D400BC2800304702031D6C
:10115000B32800304602031DB32800304502031DAA
:10116000B328323044020318B9280617AF30D40030
:10117000BC28BF308605D401BA013B1CFF280030D3
:101180004D02031DCD2800304C02031DCD28003038
:101190004B02031DCD280A304A020318D328FA3027
:1011A000CF008715FE2800304D02031DE1280030D6
:1011B0004C02031DE12800304B02031DE1281E30C4
:1011C0004A020318E7287830CF008715FE28003040
:1011D0004D02031DF52800304C02031DF528003098
:1011E0004B02031DF52832304A020318FC283C301C
:1011F000CF0008308704FE28CF018711BB018A1178
:1012000097248A158A11C1238A1583126A08031943
:101210003929EE01D401CF01831621080F3A031DAD
:101220001329A0302006031D1A29D030A000073052
:10123000A10026292108073A031D2029D0302006C5
:10124000031D2629A030A0000F30A1000830831212
:101250009D000130900083160D148830B8001330C3
:10126000B9008A11DB238A1583120313EA010130C6
:06127000EE0078283A2987
:02400E004A2F37
:00000001FF
