:02000000442D8D
:10000800FF00030E83018316A2000A08A1008A01DB
:1000180070088312A5007108A4007208A300730871
:10002800A2007408A1000B1D0D29B90AB80ABE0A5E
:100038003908023A031D5F28B901B12370088312F9
:10004800E1007108E2003230F4000030F500C92305
:10005800FF30F4000330F500F4237008E300710862
:10006800E4009A2470088312D3007108D400323057
:10007800F4000030F500C923FF30F4000330F50028
:10008800F4237008C5007108C6006408003C031D0D
:100098004F286308173C031C5A284608003C031DD8
:1000A80057284508163C031C5A285D280330880445
:1000B8005F28FC3088050918642808150130C70036
:1000C8008918692888150130C20009197228013079
:1000D800B6002C080130031D0030AC004708013A77
:1000E800031D8728BA0ABF0A3F080F3A031D7F2855
:1000F800BF01043088063A08963A031D8728BA01DA
:10010800C701FB3088054208013A031D9C28B70A3D
:10011800BB0A3B080F3A031D9428BB010830880628
:100128003708963A031D9C28B701C201F7308805A5
:100138003808033A031DC028B8017E2470088312CA
:10014800C3007108C4003230F4000030F500C92340
:10015800FF30F4000330F500F4237008CD00710877
:10016800CE007108003C031DBB2870080A3C031828
:10017800C028BC0A0319BD0A3E08DB3A031DFA2849
:10018800BE01EE30F0002A30F1003C08F4003D08D2
:10019800F500C9237008F5007108F600F701F801A9
:1001A8007508F0007608F1007708F2007808F30087
:1001B800F30CF20CF10CF00CF3137008CF0071087B
:1001C800D0007208D1007308D200BC30F4000230AD
:1001D800F500F601F70152217008C8007108C9003E
:1001E8007208CA007308CB00BC01BD012B080319B3
:1001F8000B29CC0AFE3083168D0518308312900027
:100208004C08043A031D0B29CC011124B624FB30F9
:100218008B050C1C1729DB0A0319DC0AD90A0319F8
:10022800DA0AFE308C050D1C40296F0803192929AC
:100238002E08F000F10170089C002D089B00EF01CA
:1002480009309D008F018E013E292D08403CF300A6
:100258002E08031C013E9C3CF4007408F000F101D8
:1002680070089C0073089B0008309D000130EF0067
:100278008F018E01FE308D052508F0002408F1005D
:100288002308F2002208F3002108F400831621084D
:0C0298008A00220E8300FF0E7F0E09007A
:1002A40083120313FB01FA01F901F801A001730D94
:1002B400F80D7408F8027508031C750FF902760826
:1002C400031C760FFA027708031C770FFB02000168
:1002D400031C0130A002F30D0730FC00730DF80D70
:1002E400F90DFA0DFB0DA00D7408731C8B29F8028F
:1002F4007508031C750FF9027608031C760FFA02C1
:100304007708031C770FFB020001031C0130A002D5
:100314009C29F80775080318750FF9077608031860
:10032400760FFA0777080318770FFB070001031805
:100334000130A007F30DFC0B7029720DF80DF90DB7
:10034400FA0DFB0DA00D7408731CBA29F802750888
:10035400031C750FF9027608031C760FFA0277085E
:10036400031C770FFB020001031C0130A002CB2900
:10037400F80775080318750FF90776080318760F40
:10038400FA0777080318770FFB07000103180130F9
:10039400A007F20D0730FC00720DF80DF90DFA0DEF
:1003A400FB0DA00D7408721CE929F8027508031CE2
:1003B400750FF9027608031C760FFA027708031CFE
:1003C400770FFB020001031C0130A002FA29F80791
:1003D40075080318750FF90776080318760FFA07DE
:1003E40077080318770FFB07000103180130A007F3
:1003F400F20DFC0BCE29710DF80DF90DFA0DFB0D64
:10040400A00D7408721C182AF8027508031C750FD5
:10041400F9027608031C760FFA027708031C770F9B
:10042400FB020001031C0130A002292AF807750809
:100434000318750FF90776080318760FFA0777087B
:100444000318770FFB07000103180130A007F10D13
:100454000730FC00710DF80DF90DFA0DFB0DA00D20
:100464007408711C472AF8027508031C750FF902F9
:100474007608031C760FFA027708031C770FFB0239
:100484000001031C0130A002582AF807750803185C
:10049400750FF90776080318760FFA07770803181B
:1004A400770FFB07000103180130A007F10DFC0BC7
:1004B4002C2A700DF80DF90DFA0DFB0DA00D740822
:1004C400711C762AF8027508031C750FF902760868
:1004D400031C760FFA027708031C770FFB02000156
:1004E400031C0130A002872AF80775080318750F4A
:1004F400F90776080318760FFA0777080318770FB9
:10050400FB07000103180130A007F00D0730FC00C1
:10051400700DF80DF90DFA0DFB0DA00D7408701C8B
:10052400A52AF8027508031C750FF9027608031C46
:10053400760FFA027708031C770FFB020001031CF5
:100544000130A002B62AF80775080318750FF907D9
:1005540076080318760FFA0777080318770FFB0756
:10056400000103180130A007F00DFC0B8A2A701853
:10057400C92A7408F80775080318750FF90776086F
:100584000318760FFA0777080318770FFB0708009C
:1005940083120313F101F201831629087202031D69
:1005A400D52A280871020318DD2A00000000F10A88
:0805B4000319F20ACE2A080027
:1005BC00831203132230FC00F801F901FA01FB014C
:1005CC00FC030319142B0310FB0CFA0CF90CF80C9C
:1005DC00F30CF20CF10CF00C031CE62AFC030319CF
:1005EC00062B7408F80775080318750FF9077608B9
:1005FC000318760FFA0777080318770FFB07EA2A18
:10060C007408F80775080318750FF90776080318AE
:0E061C00760FFA0777080318770FFB07080020
:10062A0083120313F101F201831627087202031DD4
:10063A00202B260871020318282B00000000F10A5B
:08064A000319F20A192B080044
:1006520007308312031392000C309700FA3083168E
:1006620092007D30831295008316A001A3018312AC
:0A067200AF01B001C001C101080092
:10067C00013083120313EF0008309D0007309C00FB
:06068C00D0309B000800C5
:0C06920083160313200883129500080053
:10069E0083120313861783162308A600A701A60D3F
:1006AE00A70D261015237F30831286058316230887
:1006BE00FA3CA600A701031CA703A60DA70D261042
:0406CE0015230800E8
:1006D20083120313F101F201831625087202031D2E
:1006E200742B240871020318882BF301F4010030E3
:1006F2007402031D7E2B9B3073020318842BF30AB2
:100702000319F40A782BF10A0319F20A6D2B080077
:1007120083120313DB01DC01DD01DE01DF01E001F5
:10072200D501D601D701D801D901DA01E501E601E7
:10073200E701E801E901EA01EB01EC01A601B101DF
:10074200A701A801A901AA01B201B301B401B5012F
:100752008F018E0183160C1418308312900008004A
:10076200C730831203139F050A308316A800003096
:10077200A900CA2283121F151F1DC02BBD2B1E08E4
:10078200F100F00183161E08F0040030F1040800A5
:1007920083120313FB01FA01F9018030F800F10C16
:1007A200F00C031CDD2B7408F90775080318750F8C
:1007B200FA070318FB0A0310F01FE52B7408FA0767
:1007C20075080318750FFB07FB0CFA0CF90CF80CF3
:1007D200031CD02B7B08F3007A08F2007908F100A1
:0607E2007808F000080099
:1007E80083120313F801F9011030FC00710DF80DA4
:1007F800F90D7408F8027508031C750FF90203183F
:100808000C2C7408F80775080318750FF9070310FE
:0A081800F00DF10DFC0BFA2B0800A7
:1008220083120313DB01DC018F018E01183090006B
:1008320087170A308316A8000030A900CA227F3029
:1008420083128705071B262C232C19309000071FC3
:100852002B2C282C183090000F08F100F0010E0804
:100862007004F8007108F9000030F9045C08F70020
:100872005B08F600F401F5017808F0007908F10050
:10088200F201F3017408F00775080318750FF107F8
:1008920076080318760FF20777080318770FF30725
:1008A2007008DD007108DE007208DF007308E000E6
:1008B2007008D5007108D6007208D7007308D800F6
:1008C2002230F400F501F601F701DE22E830F400EF
:1008D2000330F500F601F70152217008A7007108F4
:1008E200A8007208A9007308AA00AA0CA90CA80CF7
:0A08F200A70CAA130130A6000800AD
:1008FC00DF30831203131F05F000183070049F00C3
:10090C000A308316A8000030A900CA2283121F15D2
:10091C001F1D912C8E2C1E08F100F00183161E0851
:08092C00F0040030F1040800A2
:10093400CF30831203131F05F000083070049F00AA
:100944000A308316A8000030A900CA2283121F159A
:100954001F1DAD2CAA2C1E08F100F00183161E08E1
:08096400F0040030F10408006A
:10096C0083120313D901DA018F018E011830900024
:10097C0087160A308316A8000030A900CA22DF307F
:10098C0083128705071ACB2CC82C19309000071E30
:10099C00D02CCD2C183090000F08F100F0010E086F
:1009AC007004F8007108F9000030F9045A08F700D7
:1009BC005908F600F401F5017808F0007908F10007
:1009CC00F201F3017408F00775080318750FF107AD
:1009DC0076080318760FF20777080318770FF307DA
:1009EC007008E5007108E6007208E7007308E8007B
:1009FC007008E9007108EA007208EB007308EC005B
:100A0C002230F400F501F601F701DE22E830F400A3
:100A1C000330F500F601F70152217008B20071089D
:100A2C00B3007208B4007308B500B50CB40CB30C69
:0A0A3C00B20CB5130130B100080040
:100A46004130831203139F00C43083169F000800B1
:100A56000F308316031385008312850183168601E2
:100A6600831286015030831687008312870183160E
:100A76008801831288010F30831689008312890149
:020A8600080066
:100A88002B252325892329233E230730831681001C
:100A9800F0308B0083128101BC01BD01BB01BF0195
:100AA800BE01B801B701BA01B901B6010130AB0006
:100AB800AC012B080319F62D261CAA2D00302A029A
:100AC800031D702D00302902031D702D00302802EF
:100AD800031D702D0A3027020318772D0617FA30E8
:100AE8008316A000A82D003083122A02031D862D2C
:100AF80000302902031D862D00302802031D862D93
:100B08001E30270203188D2D0617C8308316A00043
:100B1800A82D003083122A02031D9C2D00302902C3
:100B2800031D9C2D00302802031D9C2D3230270206
:100B38000318A32D0617AF308316A000A82DBF30C9
:100B4800831286058316A0018312A601311CF42D99
:100B580000303502031DBA2D00303402031DBA2DB2
:100B680000303302031DBA2D0A3032020318C22D99
:100B7800FA308316A30083128715F32D003035024F
:100B8800031DD02D00303402031DD02D0030330258
:100B9800031DD02D1E3032020318D82D783083164D
:100BA800A30083128715F32D00303502031DE62DAF
:100BB80000303402031DE62D00303302031DE62DFC
:100BC800323032020318EF2D3C308316A300083070
:100BD80083128704F32D8316A30183128711B101B1
:100BE80049234F23831236080319222EAB0183169B
:100BF800A001A301083083129D00013090008316E4
:100C08000D1483122C08003A031D0F2EE830AD0096
:100C18000330AE00172E2C08013A031D172EB830EA
:100C2800AD000B30AE0088308316A4001330A50049
:100C3800692383120313B6010130AB005D2D232E07
:02400E004A2F37
:00000001FF
