:020000001529C0
:10000800FF00030E8301B2000A08B1008A010B1C2D
:100018001928061A122806150130AD00861A172865
:1000280086150130AE00FE308B050B1D8A28B00AFC
:100038003008033A031D5E28B0019D207008831222
:10004800A4007108A5003230F4000030F500CD207E
:10005800FF30F4000330F500F8207008A60071089E
:10006800A700B32070088312A0007108A1003230E5
:10007800F4000030F500CD20FF30F4000330F50027
:10008800F8207008A2007108A3002708003C031D8F
:100098004F282608223C031C5A282308003C031D2D
:1000A80057282208223C031C5A285C2886145E28FC
:1000B800FD3086052D08013A031D7328AF0AAA0AE8
:1000C8002A080F3A031D6B28AA01043086062F0858
:1000D800963A031D7328AF01AD01FB3086052E0843
:1000E800013A031D8828AB0AAC0A2C080F3A031DF5
:1000F8008028AC01083086062B08963A031D88280C
:10010800AB01AE01F7308605FB308B0531088A005C
:0A011800320E8300FF0E7F0E090077
:100122004130831203139F00C03083169F00FF30BB
:08013200850007308900080078
:10013A00C730831203139F050630FD00FD0BA32869
:10014A0000001F151F1DAA28A7281E08F100F0018C
:0C015A0083161E08F0040030F1040800B9
:10016600CF30831203131F05F000083070049F0080
:100176000630FD00FD0BBD2800001F151F1DC428FD
:10018600C1281E08F100F00183161E08F004003095
:04019600F104080068
:10019A0083120313FB01FA01F9018030F800F10C14
:1001AA00F00C031CE1287408F90775080318750F89
:1001BA00FA070318FB0A0310F01FE9287408FA0764
:1001CA0075080318750FFB07FB0CFA0CF90CF80CF1
:1001DA00031CD4287B08F3007A08F2007908F1009E
:0601EA007808F000080097
:1001F00083120313F801F9011030FC00710DF80DA2
:10020000F90D7408F8027508031C750FF90203183C
:1002100010297408F80775080318750FF9070310FB
:0A022000F00DF10DFC0BFE280800A4
:10022A00F13083160313860083128601912007306A
:10023A008100F8308B0083128101B001AF01AB015C
:08024A00AA01AC0127292829B3
:02400E004A2F37
:00000001FF
