:02000000032BD0
:10000800FF00030E8301C1000A08C0008A010B1C0F
:100018001928061A122806150130B600861A17285C
:1000280086150130B900FE308B050B1DE628A70A9E
:10003800BB0ABA0A2708023A031D6028A701F9205B
:1000480070088312B7007108B8003230F40000302D
:10005800F5000F21FF30F4000330F5006E21700821
:10006800AA007108AB00542170088312A10071081E
:10007800A2003230F4000030F5000F21FF30F40008
:100088000330F5006E217008AE007108AF002B0830
:10009800003C031D51282A08223C031C5C282F0819
:1000A800003C031D59282E08223C031C5C285E28AE
:1000B80086146028FD3086053608013A031D752828
:1000C800A90ABC0A3C080F3A031D6D28BC0104307C
:1000D80086062908963A031D7528A901B601FB3042
:1000E80086053908013A031D8A28A80ABF0A3F086D
:1000F8000F3A031D8228BF01083086062808963A61
:10010800031D8A28A801B901F73086053B08073A7C
:10011800031DAE28BB013A2170088312B200710892
:10012800B3003230F4000030F5000F21FF30F40046
:100138000330F5006E217008B4007108B50071082D
:10014800003C031DA92870080A3C0318AE28BD0A04
:100158000319BE0A3A08DB3A031DE428BA01EE3057
:10016800F0002A30F1003D08F4003E08F5000F21A8
:100178007008F5007108F600F701F8017508F0003D
:100188007608F1007708F2007808F300F30CF20C17
:10019800F10CF00CF3137008A3007108A4007208A6
:1001A800A5007308A600BC30F4000230F500F60183
:1001B800F7018B217008B0007108B100BD01BE01C4
:1001C800FB308B0540088A00410E8300FF0E7F0E2E
:0201D80009001C
:1001DA004130831203139F00C03083169F00FF3003
:0801EA008500073089000800C0
:1001F200C730831203139F050630FD00FD0BFF2855
:1002020000001F151F1D062903291E08F100F00119
:0C02120083161E08F0040030F104080000
:10021E0083120313FB01FA01F9018030F800F10C8F
:10022E00F00C031C23297408F90775080318750FC1
:10023E00FA070318FB0A0310F01F2B297408FA079C
:10024E0075080318750FFB07FB0CFA0CF90CF80C6C
:10025E00031C16297B08F3007A08F2007908F100D6
:06026E007808F000080012
:10027400D730831203131F05F000103070049F0061
:100284000630FD00FD0B442900001F151F1D4B29DE
:1002940048291E08F100F00183161E08F0040030FE
:0402A400F104080059
:1002A800CF30831203131F05F000083070049F003D
:1002B8000630FD00FD0B5E2900001F151F1D652976
:1002C80062291E08F100F00183161E08F0040030B0
:0402D800F104080025
:1002DC0083120313F801F9011030FC00710DF80DB5
:1002EC00F90D7408F8027508031C750FF902031850
:1002FC0086297408F80775080318750FF907031099
:0A030C00F00DF10DFC0B7429080040
:1003160083120313FB01FA01F901F801A001730D21
:10032600F80D7408F8027508031C750FF9027608B3
:10033600031C760FFA027708031C770FFB020001F5
:10034600031C0130A002F30D0730FC00730DF80DFD
:10035600F90DFA0DFB0DA00D7408731CC429F802E3
:100366007508031C750FF9027608031C760FFA024E
:100376007708031C770FFB020001031C0130A00263
:10038600D529F80775080318750FF90776080318B5
:10039600760FFA0777080318770FFB070001031893
:1003A6000130A007F30DFC0BA929720DF80DF90D0C
:1003B600FA0DFB0DA00D7408731CF329F8027508DD
:1003C600031C750FF9027608031C760FFA027708EC
:1003D600031C770FFB020001031C0130A002042A54
:1003E600F80775080318750FF90776080318760FCE
:1003F600FA0777080318770FFB0700010318013087
:10040600A007F20D0730FC00720DF80DF90DFA0D7C
:10041600FB0DA00D7408721C222AF8027508031C35
:10042600750FF9027608031C760FFA027708031C8B
:10043600770FFB020001031C0130A002332AF807E4
:1004460075080318750FF90776080318760FFA076B
:1004560077080318770FFB07000103180130A00780
:10046600F20DFC0B072A710DF80DF90DFA0DFB0DB7
:10047600A00D7408721C512AF8027508031C750F2A
:10048600F9027608031C760FFA027708031C770F29
:10049600FB020001031C0130A002622AF80775085E
:1004A6000318750FF90776080318760FFA07770809
:1004B6000318770FFB07000103180130A007F10DA1
:1004C6000730FC00710DF80DF90DFA0DFB0DA00DAE
:1004D6007408711C802AF8027508031C750FF9024E
:1004E6007608031C760FFA027708031C770FFB02C7
:1004F6000001031C0130A002912AF80775080318B1
:10050600750FF90776080318760FFA0777080318A8
:10051600770FFB07000103180130A007F10DFC0B54
:10052600652A700DF80DF90DFA0DFB0DA00D740876
:10053600711CAF2AF8027508031C750FF9027608BC
:10054600031C760FFA027708031C770FFB020001E3
:10055600031C0130A002C02AF80775080318750F9E
:10056600F90776080318760FFA0777080318770F46
:10057600FB07000103180130A007F00D0730FC004F
:10058600700DF80DF90DFA0DFB0DA00D7408701C19
:10059600DE2AF8027508031C750FF9027608031C9B
:1005A600760FFA027708031C770FFB020001031C83
:1005B6000130A002EF2AF80775080318750FF9072E
:1005C60076080318760FFA0777080318770FFB07E4
:1005D600000103180130A007F00DFC0BC32A7018A8
:1005E600022B7408F80775080318750FF9077608C3
:1005F6000318760FFA0777080318770FFB0708002A
:10060600F13083160313860083128601ED2007302E
:100616008100F8308B0083128101BD01BE01BF014C
:10062600BC01BA01BB01A801A901A701192B1A2B0C
:02400E004A2F37
:00000001FF
