:02000000E628F0
:10000800FF00030E8301AB000A08AC008A01A80AAE
:100018002808083A031D5B28A8016E20700883127F
:10002800A9007108AA003230F4000030F5009E20C3
:10003800FF30F4000330F500C9207008A2007108F1
:10004800A3000230FB000430FC00BA30FD00FD0BB9
:100058002B28FC0B2B28FB0B2B2800008420700876
:100068008312A4007108A5003230F4000030F500B6
:100078009E20FF30F4000330F500C9207008A60068
:100088007108A7002308003C031D4C282208223CC5
:10009800031C57282708003C031D54282608223C27
:1000A800031C5728592806145B28FE308605FB30A8
:1000B8008B052C088A002B0E8300FF0E7F0E09008B
:1000C8004130831203139F00C03083169F00FF3016
:0400D8008500080097
:1000DC00C730831203139F050630FD00FD0B7428F7
:1000EC0000001F151F1D7B2878281E08F100F00149
:0C00FC0083161E08F0040030F104080018
:10010800CF30831203131F05F000083070049F00DE
:100118000630FD00FD0B8E2800001F151F1D9528B9
:1001280092281E08F100F00183161E08F004003022
:04013800F1040800C6
:10013C0083120313FB01FA01F9018030F800F10C72
:10014C00F00C031CB2287408F90775080318750F16
:10015C00FA070318FB0A0310F01FBA287408FA07F1
:10016C0075080318750FFB07FB0CFA0CF90CF80C4F
:10017C00031CA5287B08F3007A08F2007908F1002B
:06018C007808F0000800F5
:1001920083120313F801F9011030FC00710DF80D00
:1001A200F90D7408F8027508031C750FF90203189B
:1001B200E1287408F80775080318750FF90703108A
:0A01C200F00DF10DFC0BCF28080032
:1001CC008316031386018312860164200730810095
:0C01DC00A0308B0083128101F228F32870
:02400E004A2F37
:00000001FF
