:02000000DD28F9
:10000800FF00030E8301AB000A08AC008A010B1D38
:100018005228A80A2808023A031D5028A80165207A
:1000280070088312A9007108AA003230F400003069
:10003800F5009520FF30F4000330F500C02070086B
:10004800A2007108A3007B2070088312A400710825
:10005800A5003230F4000030F5009520FF30F400A0
:100068000330F500C0207008A6007108A700230817
:10007800003C031D41282208223C031C4C28270869
:10008800003C031D49282608223C031C4C284E2806
:1000980086145028FD308605FB308B052C088A0015
:0A00A8002B0E8300FF0E7F0E0900EF
:1000B2004130831203139F00C03083169F00FF302C
:0800C2008500073089000800E9
:1000CA00C730831203139F050630FD00FD0B6B2812
:1000DA0000001F151F1D72286F281E08F100F0016D
:0C00EA0083161E08F0040030F10408002A
:1000F600CF30831203131F05F000083070049F00F1
:100106000630FD00FD0B852800001F151F1D8C28DD
:1001160089281E08F100F00183161E08F00400303D
:04012600F1040800D8
:10012A0083120313FB01FA01F9018030F800F10C84
:10013A00F00C031CA9287408F90775080318750F31
:10014A00FA070318FB0A0310F01FB1287408FA070C
:10015A0075080318750FFB07FB0CFA0CF90CF80C61
:10016A00031C9C287B08F3007A08F2007908F10046
:06017A007808F000080007
:1001800083120313F801F9011030FC00710DF80D12
:10019000F90D7408F8027508031C750FF9020318AD
:1001A000D8287408F80775080318750FF9070310A5
:0A01B000F00DF10DFC0BC62808004D
:1001BA0083160313860183128601592007308100B2
:0C01CA00A0308B0083128101E928EA2894
:02400E004A2F37
:00000001FF
